:100000000C9462000C946C030C9445030C948A00CD
:100010000C948A000C948A000C948A000C948A0038
:100020000C948A000C948A000C948A000C948A0028
:100030000C948A000C94EB030C948A000C948A00B4
:100040000C94FB020C948A000C94B9030C94930357
:100050000C948A000C948A000C948A000C948A00F8
:100060000C948A000C948A000000000024002700F1
:100070002A0000000000250028002B0000000000DE
:1000800023002600290004040404040404040202DA
:100090000202020203030303030301020408102007
:1000A0004080010204081020010204081020000012
:1000B0000008000201000003040700000000000027
:1000C0000000010611241FBECFEFD8E0DEBFCDBF78
:1000D00012E0A0E0B1E0E8E9FEE002C005900D9278
:1000E000A032B107D9F722E0A0E2B2E001C01D9230
:1000F000A03DB207E1F710E0C2E6D0E004C02197CE
:10010000FE010E943F07C136D107C9F70E941204C1
:100110000C944A070C940000833081F028F481305D
:1001200099F08230A1F008958730A9F08830B9F0B5
:100130008430D1F4809180008F7D03C08091800055
:100140008F7780938000089584B58F7702C084B53F
:100150008F7D84BD08958091B0008F7703C080911A
:10016000B0008F7D8093B0000895CF93DF93282F48
:1001700030E0F901E255FF4F8491F901E656FF4F57
:10018000D491F901EA57FF4FC491CC2391F081112A
:100190000E948C00EC2FF0E0EE0FFF1FE458FF4FA1
:1001A000A591B491EC91ED2381E090E021F480E001
:1001B00002C080E090E0DF91CF9108951F93CF932C
:1001C000DF93282F30E0F901E255FF4F8491F901C8
:1001D000E656FF4FD491F901EA57FF4FC491CC2363
:1001E000C1F0162F81110E948C00EC2FF0E0EE0F71
:1001F000FF1FEE58FF4FA591B4919FB7F8941111CE
:1002000004C08C91D095D82302C0EC91DE2BDC93F6
:100210009FBFDF91CF911F910895CF93DF9390E01F
:10022000FC01E656FF4F2491FC01EA57FF4F8491F1
:10023000882361F190E0880F991FFC01E859FF4F76
:10024000C591D491FC01EE58FF4FA591B491611175
:1002500009C09FB7F8948881209582238883EC9108
:100260002E230BC0623061F49FB7F8948881322F3F
:10027000309583238883EC912E2B2C939FBF06C04F
:100280008FB7F894E8812E2B28838FBFDF91CF9111
:1002900008953FB7F89480912F0290913002A09179
:1002A0003102B091320226B5A89B05C02F3F19F04C
:1002B0000196A11DB11D3FBFBA2FA92F982F8827E6
:1002C000820F911DA11DB11DBC01CD0142E0660F41
:1002D000771F881F991F4A95D1F70895F89481E0F8
:1002E00090E09093270280932602909329028093B6
:1002F00028020895F89481E090E09093250280937D
:100300002402909329028093280208950895CF92A1
:10031000DF92EF92FF920F931F93CF93DF936C01C5
:100320007A018B01C0E0D0E0CE15DF0581F0D80165
:100330006D918D01D601ED91FC910190F081E02D40
:10034000C6010995892B11F02196EECF7E01C701D8
:10035000DF91CF911F910F91FF90EF90DF90CF90A1
:100360000895089580E090E00895FC01538D448D38
:10037000252F30E0842F90E0821B930B541710F050
:10038000CF96089501970895FC01918D828D98175D
:1003900061F0828DDF01A80FB11D5D968C91928D69
:1003A0009F5F9F73928F90E008958FEF9FEF089566
:1003B000FC01918D828D981731F0828DE80FF11D2F
:1003C000858D90E008958FEF9FEF0895FC01918D4A
:1003D000228D892F90E0805C9F4F821B91098F7343
:1003E0009927089583E392E00E94E60121E0892B9A
:1003F00009F420E0822F0895FC01848DDF01A80F0D
:10040000B11DA35ABF4F2C91848D90E001968F733C
:100410009927848FA689B7892C93A089B1898C915B
:10042000837080648C93938D848D981306C00288AA
:10043000F389E02D80818F7D80830895EF92FF9274
:100440000F931F93CF93DF93EC0181E0888F9B8DF7
:100450008C8D981305C0E889F989808185FD26C0B7
:10046000F62E0B8D10E00F5F1F4F0F731127E02E3C
:100470008C8DE8120CC00FB607FCFACFE889F98919
:10048000808185FFF5CFCE010E94FC01F1CF8B8DDD
:10049000FE01E80FF11DE35AFF4FF0829FB7F89479
:1004A0000B8FEA89FB89808180620AC09FB7F8942C
:1004B000EE89FF896083E889F9898081837080648F
:1004C00080839FBF81E090E0DF91CF911F910F91DA
:1004D000FF90EF900895CF93DF93EC01888D8823F0
:1004E000C9F0EA89FB89808185FD05C0A889B989A1
:1004F0008C9186FD0FC00FB607FCF5CF808185FF7C
:10050000F2CFA889B9898C9185FFEDCFCE010E94E9
:10051000FC01E7CFDF91CF91089580E090E0892B37
:1005200029F00E94F20181110C9400000895EF92CD
:10053000FF920F931F93CF9397E0899F700111242F
:1005400000E010E0CCE0F701E00FF11FE85FFE4FA4
:1005500060818C2F0E94DE00C1500F5F1F4FC5309D
:1005600091F7CF911F910F91FF90EF90089585E043
:100570000E94B50061E0892B09F060E085E00E94EF
:10058000DE008DE00E94B50061E0892B09F060E09B
:100590008DE00E94DE0085E00E94B500892B19F0F5
:1005A0008091220202C0809123020C949702CF9383
:1005B000DF93009779F0FC0101900020E9F7319773
:1005C000AF01481B590BBC0183E392E00E948701F5
:1005D000EC0102C0C0E0D0E042E050E060E671E033
:1005E00083E392E00E9487018C0F9D1FDF91CF91E2
:1005F00008950E9445071F920F920FB60F92112483
:100600002F933F938F939F93AF93BF9380912B0230
:1006100090912C02A0912D02B0912E0230912A02CD
:1006200023E0230F2D3720F40196A11DB11D05C035
:1006300026E8230F0296A11DB11D20932A02809364
:100640002B0290932C02A0932D02B0932E02809146
:100650002F0290913002A0913102B09132020196A6
:10066000A11DB11D80932F0290933002A0933102FF
:10067000B0933202BF91AF919F918F913F912F9193
:100680000F900FBE0F901F9018951F920F920FB6EC
:100690000F9211242F933F934F935F936F937F9308
:1006A0008F939F93AF93BF93EF93FF93E0910201DA
:1006B000F09103010995FF91EF91BF91AF919F9147
:1006C0008F917F916F915F914F913F912F910F90FB
:1006D0000FBE0F901F9018951F920F920FB60F929A
:1006E00011242F933F934F935F936F937F938F9337
:1006F0009F93AF93BF93EF93FF93E0910001F0912D
:1007000001010995FF91EF91BF91AF919F918F9159
:100710007F916F915F914F913F912F910F900FBEFD
:100720000F901F9018951F920F920FB60F921124E1
:100730002F933F934F935F936F937F938F939F93E9
:10074000AF93BF93EF93FF9383E392E00E94FC018A
:10075000FF91EF91BF91AF919F918F917F916F9199
:100760005F914F913F912F910F900FBE0F901F906F
:1007700018951F920F920FB60F9211242F938F93FB
:100780009F93EF93FF93E0914302F09144028081A5
:10079000E0914902F0914A0282FD12C0908180915D
:1007A0004C028F5F8F7320914D02821751F0E091C0
:1007B0004C02F0E0ED5CFD4F958F80934C0201C040
:1007C0008081FF91EF919F918F912F910F900FBE9C
:1007D0000F901F9018951F920F920FB60F92112431
:1007E0002F933F934F935F936F937F938F939F9339
:1007F000AF93BF93EF93FF93E0912002F09121021A
:100800000995FF91EF91BF91AF919F918F917F914A
:100810006F915F914F913F912F910F900FBE0F906D
:100820001F901895789484B5826084BD84B58160EA
:1008300084BD85B5826085BD85B5816085BD8091AB
:100840006E00816080936E00109281008091810023
:10085000826080938100809181008160809381001B
:10086000809180008160809380008091B1008460DD
:100870008093B1008091B00081608093B00080913E
:100880007A00846080937A0080917A0082608093FD
:100890007A0080917A00816080937A0080917A005A
:1008A000806880937A001092C100E0914302F09139
:1008B000440282E08083E0913F02F0914002108286
:1008C000E0914102F09142028FEC808310924B0242
:1008D000E0914702F091480286E08083E091450272
:1008E000F0914602808180618083E0914502F09121
:1008F0004602808188608083E0914502F091460243
:10090000808180688083E0914502F0914602808179
:100910008F7D808361E08FE00E940D0161E082E1C4
:100920000E940D0161E08EE00E940D0161E085E012
:100930000E940D0161E08DE00E940D0161E08CE0FC
:100940000E940D0161E08BE00E940D0161E08AE0F0
:100950000E940D0161E089E00E940D0161E088E0E4
:100960000E940D0161E087E00E940D0161E086E0D8
:100970000E940D0162E081E10E940D0162E080E1D0
:100980000E940D0162E082E00E940D0162E083E0BE
:100990000E940D018EE691E0909301018093000189
:1009A000809169008C7F826080936900E89A8AE771
:1009B00091E0909303018093020180916900837F0D
:1009C000886080936900E99A80E1809381001092A9
:1009D000800080E197E2909387008093860082E117
:1009E0008093810087EB92E0909321028093200214
:1009F00081E080936F0010922502109224021092E1
:100A000027021092260210922902109228021092B8
:100A100023021092220260E085E00E94DE0061E085
:100A20008DE00E94DE009AE0392E24E6C22ED12C01
:100A3000E12CF12C8091280290912902892B09F454
:100A4000C5C083E691E00E94D70280912602909172
:100A50002702892BC9F08091240290912502892BCD
:100A600099F00E947906A70196010E94D006617054
:100A70007727672B09F0ADC010922502109224024F
:100A800082E791E00E94D7026091240270912502D2
:100A90008EE00E94DE0060912602709127028FE0B6
:100AA0000E94DE0061E082E10E94DE00C6E0D0E04C
:100AB0000E9449014B015C0188EE482E83E0582ECC
:100AC000612C712C0E944901DC01CB018819990924
:100AD000AA09BB09883E9340A105B10598F321E01E
:100AE000421A51086108710888EE880E83E0981E4A
:100AF000A11CB11C411451046104710419F7219720
:100B0000B9F660E082E10E94DE0080EA91E00E9496
:100B1000D70281E10E94B50031E020E0892B09F085
:100B200030E0032F122F80E10E94B50031E020E079
:100B3000892B09F030E0C32FD22F8FEB91E00E9478
:100B4000D702012BC1F4CD2B09F04AC081E10E94EC
:100B5000B50031E020E0892B09F030E0032F122F9F
:100B600080E10E94B50031E020E0892B09F030E0FF
:100B7000C32FD22FE6CF82EF91E00E94D70280915F
:100B800023028F5F8093230280912302632D0E94B2
:100B900033079093230210922502109224021092A0
:100BA00027021092260210922902109228026091C8
:100BB0002402709125028EE00E94DE0060912602E0
:100BC000709127028FE00E94DE0078940E948D02CF
:100BD00031CF109227021092260287E891E052CF7F
:100BE00087E092E00E94D702809122028F5F80937B
:100BF000220280912202632D0E94330790932202E9
:100C0000CACFE3E3F2E01382128288EE93E0A0E021
:100C1000B0E084839583A683B78382E591E09183D6
:100C2000808385EC90E09587848784EC90E09787BB
:100C3000868780EC90E0918B808B81EC90E0938BA9
:100C4000828B82EC90E0958B848B86EC90E0978B86
:100C5000868B118E128E138E148E08958F929F9212
:100C6000AF92BF92CF92DF92EF92FF92CF93DF933A
:100C7000EC01688179818A819B816115710581050B
:100C8000910521F464E279ED8BE597E02DE133EFF6
:100C900041E050E00E94D00649015A019B01AC019D
:100CA000A7EAB1E40E94EF066B017C01ACEEB4EF61
:100CB000A50194010E94FD06DC01CB018C0D9D1D58
:100CC000AE1DBF1DB7FF03C00197A109B0488883BF
:100CD0009983AA83BB83BC01CD019F77DF91CF911C
:100CE000FF90EF90DF90CF90BF90AF909F908F904C
:100CF00008958F929F92AF92BF92CF92DF92EF9220
:100D0000FF9260910401709105018091060190911C
:100D10000701611571058105910521F464E279ED02
:100D20008BE597E02DE133EF41E050E00E94D006E3
:100D300049015A019B01AC01A7EAB1E40E94EF0608
:100D40006B017C01ACEEB4EFA50194010E94FD069D
:100D5000DC01CB018C0D9D1DAE1DBF1DB7FF03C077
:100D60000197A109B0488093040190930501A093D5
:100D70000601B0930701BC01CD019F77FF90EF9072
:100D8000DF90CF90BF90AF909F908F900895609329
:100D90000401709305018093060190930701089563
:100DA000052E97FB1EF400940E94E70657FD07D01E
:100DB0000E94020707FC03D04EF40C94E7065095FE
:100DC0004095309521953F4F4F4F5F4F0895909537
:100DD0008095709561957F4F8F4F9F4F08950E942A
:100DE0002407A59F900DB49F900DA49F800D911D89
:100DF00011240895B7FF0C94EF060E94EF06821BA2
:100E0000930B0895A1E21A2EAA1BBB1BFD010DC076
:100E1000AA1FBB1FEE1FFF1FA217B307E407F507AA
:100E200020F0A21BB30BE40BF50B661F771F881F86
:100E3000991F1A9469F760957095809590959B011C
:100E4000AC01BD01CF010895A29FB001B39FC001C5
:100E5000A39F700D811D1124911DB29F700D811DE6
:100E60001124911D0895991B79E004C0991F9617CC
:100E700008F0961B881F7A95C9F780950895EE0FA4
:100E8000FF1F0590F491E02D099481E090E0F89423
:080E90000C944A07F894FFCF0F
:100E98008601860101000000010101010101000035
:100EA8000101000000000101000101000101010130
:100EB8000100000100010100000101010001010021
:100EC800010101000101010101010101000000000F
:100ED80001010101010101010101000001010000FE
:100EE80000001E028701B5016B02E601C401D801AA
:100EF8000D0A00416C61726D6520617469766164E8
:100F08006F004C656420417A756C20736572C3A1CB
:100F180020616365736F004C6564205665726D656A
:100F28006C686F20736572C3A120616365736F007D
:100F380054656D706F207061726120726573706F97
:100F4800737461206573676F7461646F2121004554
:100F580073706572616E646F2070656C6F20626F6C
:100F680074C3A36F207175652064697A20717561F7
:100F78006C2065717569706520706F6E74756F751A
:100F8800210045717569706520617A756C20706FF4
:100F98006E74756F752100457175697065205665A9
:100FA800726D656C686120706F6E74756F75210065
:00000001FF
