:100000000C9462000C94BC030C9495030C948A002D
:100010000C948A000C948A000C948A000C948A0038
:100020000C948A000C948A000C948A000C948A0028
:100030000C948A000C943B040C948A000C948A0063
:100040000C944B030C948A000C9409040C94E30365
:100050000C948A000C948A000C948A000C948A00F8
:100060000C948A000C948A000000000024002700F1
:100070002A0000000000250028002B0000000000DE
:1000800023002600290004040404040404040202DA
:100090000202020203030303030301020408102007
:1000A0004080010204081020010204081020000012
:1000B0000008000201000003040700000000000027
:1000C00000002C0611241FBECFEFD8E0DEBFCDBF4D
:1000D00012E0A0E0B1E0EEEEFEE002C005900D926D
:1000E000A232B107D9F722E0A2E2B2E001C01D922C
:1000F000A23DB207E1F710E0C2E6D0E004C02197CC
:10010000FE010E946A07C136D107C9F70E94620446
:100110000C9475070C940000833081F028F4813032
:1001200099F08230A1F008958730A9F08830B9F0B5
:100130008430D1F4809180008F7D03C08091800055
:100140008F7780938000089584B58F7702C084B53F
:100150008F7D84BD08958091B0008F7703C080911A
:10016000B0008F7D8093B0000895CF93DF93282F48
:1001700030E0F901E255FF4F8491F901E656FF4F57
:10018000D491F901EA57FF4FC491CC2391F081112A
:100190000E948C00EC2FF0E0EE0FFF1FE458FF4FA1
:1001A000A591B491EC91ED2381E090E021F480E001
:1001B00002C080E090E0DF91CF9108951F93CF932C
:1001C000DF93282F30E0F901E255FF4F8491F901C8
:1001D000E656FF4FD491F901EA57FF4FC491CC2363
:1001E000C1F0162F81110E948C00EC2FF0E0EE0F71
:1001F000FF1FEE58FF4FA591B4919FB7F8941111CE
:1002000004C08C91D095D82302C0EC91DE2BDC93F6
:100210009FBFDF91CF911F910895CF93DF9390E01F
:10022000FC01E656FF4F2491FC01EA57FF4F8491F1
:10023000882361F190E0880F991FFC01E859FF4F76
:10024000C591D491FC01EE58FF4FA591B491611175
:1002500009C09FB7F8948881209582238883EC9108
:100260002E230BC0623061F49FB7F8948881322F3F
:10027000309583238883EC912E2B2C939FBF06C04F
:100280008FB7F894E8812E2B28838FBFDF91CF9111
:1002900008953FB7F8948091310290913202A09175
:1002A0003302B091340226B5A89B05C02F3F19F048
:1002B0000196A11DB11D3FBFBA2FA92F982F8827E6
:1002C000820F911DA11DB11DBC01CD0142E0660F41
:1002D000771F881F991F4A95D1F708958F929F9293
:1002E000AF92BF92CF92DF92EF92FF926B017C01AF
:1002F0000E9449014B015C01C114D104E104F104E5
:10030000F1F00E944901DC01CB0188199909AA0981
:10031000BB09883E9340A105B10570F321E0C21AE4
:10032000D108E108F10888EE880E83E0981EA11C30
:10033000B11CC114D104E104F10419F7DDCFFF9021
:10034000EF90DF90CF90BF90AF909F908F900895E7
:10035000F89481E090E09093290280932802909392
:100360002B0280932A020895F89481E090E0909304
:1003700027028093260290932B0280932A020895ED
:100380000895CF92DF92EF92FF920F931F93CF9336
:10039000DF936C017A018B01C0E0D0E0CE15DF0560
:1003A00081F0D8016D918D01D601ED91FC91019004
:1003B000F081E02DC6010995892B11F02196EECF31
:1003C0007E01C701DF91CF911F910F91FF90EF90B8
:1003D000DF90CF900895089580E090E00895FC01AB
:1003E000538D448D252F30E0842F90E0821B930B9A
:1003F000541710F0CF96089501970895FC01918D40
:10040000828D981761F0828DDF01A80FB11D5D9676
:100410008C91928D9F5F9F73928F90E008958FEFE4
:100420009FEF0895FC01918D828D981731F0828D98
:10043000E80FF11D858D90E008958FEF9FEF0895EF
:10044000FC01918D228D892F90E0805C9F4F821B53
:1004500091098F739927089585E392E00E94200205
:1004600021E0892B09F420E0822F0895FC01848D7E
:10047000DF01A80FB11DA35ABF4F2C91848D90E0CE
:1004800001968F739927848FA689B7892C93A089A9
:10049000B1898C91837080648C93938D848D981333
:1004A00006C00288F389E02D80818F7D80830895C6
:1004B000EF92FF920F931F93CF93DF93EC0181E0B4
:1004C000888F9B8D8C8D981305C0E889F989808170
:1004D00085FD26C0F62E0B8D10E00F5F1F4F0F73AA
:1004E0001127E02E8C8DE8120CC00FB607FCFACF56
:1004F000E889F989808185FFF5CFCE010E94360217
:10050000F1CF8B8DFE01E80FF11DE35AFF4FF08212
:100510009FB7F8940B8FEA89FB89808180620AC0BB
:100520009FB7F894EE89FF896083E889F989808113
:100530008370806480839FBF81E090E0DF91CF91E2
:100540001F910F91FF90EF900895CF93DF93EC01EF
:10055000888D8823C9F0EA89FB89808185FD05C0E3
:10056000A889B9898C9186FD0FC00FB607FCF5CF1D
:10057000808185FFF2CFA889B9898C9185FFEDCF65
:10058000CE010E943602E7CFDF91CF91089580E03F
:1005900090E0892B29F00E942C0281110C9400001C
:1005A0000895EF92FF920F931F93CF9397E0899F47
:1005B0007001112400E010E0CCE0F701E00FF11F22
:1005C000E75FFE4F60818C2F0E94DE00C1500F5FFD
:1005D0001F4FC53091F7CF911F910F91FF90EF9072
:1005E0000895809100018F5F809300018091000148
:1005F00081708093000160E085E00E94DE0060E091
:100600008DE00E94DE0062E070E080E090E00E94F9
:100610006E018091000180FD03C08091250202C01F
:10062000809124020E94D10262E070E080E090E0BC
:100630000E946E016091000185E00E94DE008091C1
:10064000000161E0811160E08DE00C94DE00CF9349
:10065000DF93009779F0FC0101900020E9F73197D2
:10066000AF01481B590BBC0185E392E00E94C10118
:10067000EC0102C0C0E0D0E042E050E061E671E091
:1006800085E392E00E94C1018C0F9D1FDF91CF9105
:1006900008950E9470071F920F920FB60F921124B7
:1006A0002F933F938F939F93AF93BF9380912D028E
:1006B00090912E02A0912F02B091300230912C0225
:1006C00023E0230F2D3720F40196A11DB11D05C095
:1006D00026E8230F0296A11DB11D20932C028093C2
:1006E0002D0290932E02A0932F02B093300280919E
:1006F000310290913202A0913302B09134020196FE
:10070000A11DB11D8093310290933202A093330258
:10071000B0933402BF91AF919F918F913F912F91F0
:100720000F900FBE0F901F9018951F920F920FB64B
:100730000F9211242F933F934F935F936F937F9367
:100740008F939F93AF93BF93EF93FF93E091030138
:10075000F09104010995FF91EF91BF91AF919F91A5
:100760008F917F916F915F914F913F912F910F905A
:100770000FBE0F901F9018951F920F920FB60F92F9
:1007800011242F933F934F935F936F937F938F9396
:100790009F93AF93BF93EF93FF93E0910101F0918B
:1007A00002010995FF91EF91BF91AF919F918F91B8
:1007B0007F916F915F914F913F912F910F900FBE5D
:1007C0000F901F9018951F920F920FB60F92112441
:1007D0002F933F934F935F936F937F938F939F9349
:1007E000AF93BF93EF93FF9385E392E00E943602AD
:1007F000FF91EF91BF91AF919F918F917F916F91F9
:100800005F914F913F912F910F900FBE0F901F90CE
:1008100018951F920F920FB60F9211242F938F935A
:100820009F93EF93FF93E0914502F0914602808100
:10083000E0914B02F0914C0282FD12C090818091B8
:100840004E028F5F8F7320914F02821751F0E0911B
:100850004E02F0E0EB5CFD4F958F80934E0201C09D
:100860008081FF91EF919F918F912F910F900FBEFB
:100870000F901F9018951F920F920FB60F92112490
:100880002F933F934F935F936F937F938F939F9398
:10089000AF93BF93EF93FF93E0912202F091230275
:1008A0000995FF91EF91BF91AF919F918F917F91AA
:1008B0006F915F914F913F912F910F900FBE0F90CD
:1008C0001F901895789484B5826084BD84B581604A
:1008D00084BD85B5826085BD85B5816085BD80910B
:1008E0006E00816080936E00109281008091810083
:1008F000826080938100809181008160809381007B
:10090000809180008160809380008091B10084603C
:100910008093B1008091B00081608093B00080919D
:100920007A00846080937A0080917A00826080935C
:100930007A0080917A00816080937A0080917A00B9
:10094000806880937A001092C100E0914502F09196
:10095000460282E08083E0914102F09142021082DF
:10096000E0914302F09144028FEC808310924D029B
:10097000E0914902F0914A0286E08083E0914702CB
:10098000F0914802808180618083E0914702F0917C
:100990004802808188608083E0914702F09148029C
:1009A000808180688083E0914702F09148028081D5
:1009B0008F7D808361E08FE00E940D0161E082E124
:1009C0000E940D0161E08EE00E940D0161E085E072
:1009D0000E940D0161E08DE00E940D0161E08CE05C
:1009E0000E940D0161E08BE00E940D0161E08AE050
:1009F0000E940D0161E089E00E940D0161E088E044
:100A00000E940D0161E087E00E940D0161E086E037
:100A10000E940D0162E081E10E940D0162E080E12F
:100A20000E940D0162E082E00E940D0162E083E01D
:100A30000E940D0188EA91E09093020180930101E8
:100A4000809169008C7F826080936900E89A84EBD2
:100A500091E0909304018093030180916900837F6A
:100A6000886080936900E99A80E180938100109208
:100A7000800080E197E2909387008093860082E176
:100A80008093810081EF92E0909323028093220271
:100A900081E080936F00109227021092260210923C
:100AA00029021092280210922B0210922A02109210
:100AB00025021092240260E085E00E94DE0061E0E1
:100AC0008DE00E94DE008AE0B82E94E6C92ED12C7B
:100AD000E12CF12C80912A0290912B02892B09F4B0
:100AE000A0C084E691E00E942703809128029091A3
:100AF0002902892BC9F08091260290912702892B27
:100B000099F00E94A406A70196010E94FB0661705D
:100B10007727672B09F088C01092270210922602CF
:100B200083E791E00E9427036091260270912702DB
:100B30008EE00E94DE0060912802709129028FE011
:100B40000E94DE0061E082E10E94DE0064EC79E058
:100B500080E090E00E946E0160E082E10E94DE0091
:100B600081EA91E00E94270381E10E94B50031E013
:100B700020E0892B09F030E0032F122F80E10E9442
:100B8000B50031E020E0892B09F030E0C32FD22FEF
:100B900080EC91E00E942703012BC1F4CD2B09F0DA
:100BA0004AC081E10E94B50031E020E0892B09F0C4
:100BB00030E0032F122F80E10E94B50031E020E0E9
:100BC000892B09F030E0C32FD22FE6CF83EF91E0DD
:100BD0000E942703809125028F5F809325028091D8
:100BE00025026B2D0E945E0790932502109227022A
:100BF00010922602109229021092280210922B02C3
:100C000010922A0260912602709127028EE00E94C3
:100C1000DE0060912802709129028FE00E94DE00C0
:100C200078940E94C70256CF10922902109228028F
:100C300088E891E077CF88E092E00E9427038091D6
:100C400024028F5F80932402809124026B2D0E94E6
:100C50005E0790932402CACFE5E3F2E0138212828A
:100C600088EE93E0A0E0B0E084839583A683B78309
:100C700083E591E09183808385EC90E0958784877C
:100C800084EC90E09787868780EC90E0918B808B56
:100C900081EC90E0938B828B82EC90E0958B848B3F
:100CA00086EC90E0978B868B118E128E138E148EAD
:100CB00008958F929F92AF92BF92CF92DF92EF9260
:100CC000FF92CF93DF93EC01688179818A819B81C8
:100CD000611571058105910521F464E279ED8BE5DB
:100CE00097E02DE133EF41E050E00E94FB0649011F
:100CF0005A019B01AC01A7EAB1E40E941A076B01FB
:100D00007C01ACEEB4EFA50194010E942807DC0140
:100D1000CB018C0D9D1DAE1DBF1DB7FF03C00197FC
:100D2000A109B04888839983AA83BB83BC01CD0104
:100D30009F77DF91CF91FF90EF90DF90CF90BF90A2
:100D4000AF909F908F9008958F929F92AF92BF9295
:100D5000CF92DF92EF92FF926091050170910601B0
:100D60008091070190910801611571058105910538
:100D700021F464E279ED8BE597E02DE133EF41E07A
:100D800050E00E94FB0649015A019B01AC01A7EA11
:100D9000B1E40E941A076B017C01ACEEB4EFA5012F
:100DA00094010E942807DC01CB018C0D9D1DAE1D16
:100DB000BF1DB7FF03C00197A109B048809305018B
:100DC00090930601A0930701B0930801BC01CD01E7
:100DD0009F77FF90EF90DF90CF90BF90AF909F9064
:100DE0008F90089560930501709306018093070129
:100DF000909308010895052E97FB1EF400940E941D
:100E0000120757FD07D00E942D0707FC03D04EF4B0
:100E10000C94120750954095309521953F4F4F4FB8
:100E20005F4F089590958095709561957F4F8F4F96
:100E30009F4F08950E944F07A59F900DB49F900D5E
:100E4000A49F800D911D11240895B7FF0C941A07DB
:100E50000E941A07821B930B0895A1E21A2EAA1B67
:100E6000BB1BFD010DC0AA1FBB1FEE1FFF1FA2175A
:100E7000B307E407F50720F0A21BB30BE40BF50B57
:100E8000661F771F881F991F1A9469F760957095E0
:100E9000809590959B01AC01BD01CF010895A29F63
:100EA000B001B39FC001A39F700D811D1124911D3E
:100EB000B29F700D811D1124911D0895991B79E039
:100EC00004C0991F961708F0961B881F7A95C9F7DA
:100ED00080950895EE0FFF1F0590F491E02D099481
:0E0EE00081E090E0F8940C947507F894FFCF31
:100EEE0001C001C00101000000010101010101006A
:100EFE0000010100000000010100010100010101DB
:100F0E0001010000010001010000010101000101C9
:100F1E0000010101000101010101010101000000B8
:100F2E0000010101010101010101010000010100A7
:100F3E000000005802C101EF01A5022002FE0112BD
:100F4E00020D0A00416C61726D65206174697661F3
:100F5E00646F004C656420417A756C20736572C3B2
:100F6E00A120616365736F004C6564205665726DD8
:100F7E00656C686F20736572C3A120616365736FC2
:100F8E000054656D706F20706172612072657370B0
:100F9E006F737461206573676F7461646F212100D4
:100FAE004573706572616E646F2070656C6F206240
:100FBE006F74C3A36F207175652064697A20717593
:100FCE00616C2065717569706520706F6E74756FD8
:100FDE0075210045717569706520617A756C207098
:100FEE006F6E74756F752100457175697065205649
:100FFE0065726D656C686120706F6E74756F7521AA
:02100E000000E0
:00000001FF
