:100000000C9462000C94BF030C9498030C948A0027
:100010000C948A000C948A000C948A000C948A0038
:100020000C948A000C948A000C948A000C948A0028
:100030000C948A000C94E6030C948A000C948A00B9
:100040000C944E030C948A000C941C030C94F6023E
:100050000C948A000C948A000C948A000C948A00F8
:100060000C948A000C948A000000000024002700F1
:100070002A0000000000250028002B0000000000DE
:1000800023002600290004040404040404040202DA
:100090000202020203030303030301020408102007
:1000A0004080010204081020010204081020000012
:1000B0000008000201000003040700000000000027
:1000C0000000F20511241FBECFEFD8E0DEBFCDBF88
:1000D00012E0A0E0B1E0E6EDFDE002C005900D9277
:1000E000A032B107D9F722E0A0E2B2E001C01D9230
:1000F000A33DB207E1F710E0C2E6D0E004C02197CB
:10010000FE010E94DE06C136D107C9F70E940D0428
:100110000C94E9060C940000F89481E090E0909330
:100120003302809332029093350280933402089513
:10013000F89481E090E090933102809330029093A4
:100140003502809334020895CF92DF92EF92FF92AE
:100150000F931F93CF93DF936C017A018B01C0E063
:10016000D0E0CE15DF0589F0D8016D918D01D60163
:10017000ED91FC910190F081E02DC6010995892B4C
:1001800011F47E0102C02196ECCFC701DF91CF911F
:100190001F910F91FF90EF90DF90CF9008950895F9
:1001A00080E090E00895FC01538D448D252F30E0D0
:1001B000842F90E0821B930B541710F0CF96089574
:1001C00001970895FC01918D828D981761F0828DC1
:1001D000DF01A80FB11D5D968C91928D9F5F9F737B
:1001E000928F90E008958FEF9FEF0895FC01918D1D
:1001F000828D981731F0828DE80FF11D858D90E08A
:1002000008958FEF9FEF0895FC01918D228D892F26
:1002100090E0805C9F4F821B91098F73992708950E
:1002200086E392E00E94040121E0892B09F420E09A
:10023000822F0895FC01848DDF01A80FB11DA35A00
:10024000BF4F2C91848D90E001968F739927848FF6
:10025000A689B7892C93A089B1898C9180648C93ED
:10026000938D848D981306C00288F389E02D8081D8
:100270008F7D80830895EF92FF920F931F93CF930A
:10028000DF93EC0181E0888F9B8D8C8D981305C0E6
:10029000E889F989808185FD24C0F62E0B8D10E058
:1002A0000F5F1F4F0F731127E02E8C8DE8120CC0CB
:1002B0000FB607FCFACFE889F989808185FFF5CF71
:1002C000CE010E941A01F1CF8B8DFE01E80FF11DC6
:1002D000E35AFF4FF0820B8FEA89FB8980818062AD
:1002E00007C0EE89FF896083E889F989808180648D
:1002F000808381E090E0DF91CF911F910F91FF907B
:10030000EF900895CF93DF93EC01888D8823C9F097
:10031000EA89FB89808185FD05C0A889B9898C910E
:1003200086FD0FC00FB607FCF5CF808185FFF2CFA9
:10033000A889B9898C9185FFEDCFCE010E941A0161
:10034000E7CFDF91CF91089580E090E0892B29F0ED
:100350000E94100181110C9400000895833081F0F7
:1003600028F4813099F08230A1F008958730A9F007
:100370008830B9F08430D1F4809180008F7D03C043
:10038000809180008F7780938000089584B58F7767
:1003900002C084B58F7D84BD08958091B0008F77B1
:1003A00003C08091B0008F7D8093B0000895CF93FB
:1003B000DF93282F30E0F901E255FF4F8491F901D6
:1003C000E656FF4FD491F901EA57FF4FC491CC2371
:1003D00091F081110E94AE01EC2FF0E0EE0FFF1FB3
:1003E000E458FF4FA591B491EC91ED2381E090E0AA
:1003F00021F480E002C080E090E0DF91CF91089589
:100400001F93CF93DF93282F30E0F901E255FF4F80
:100410008491F901E656FF4FD491F901EA57FF4F55
:10042000C491CC23C9F0162F81110E94AE01EC2F8C
:10043000F0E0EE0FFF1FEE58FF4FA591B4918FB77C
:10044000F894111105C09C91ED2FE095E92302C0AD
:10045000EC91ED2BEC938FBFDF91CF911F9108951D
:10046000CF93DF9390E0FC01E656FF4F2491FC010F
:10047000EA57FF4F8491882361F190E0880F991F1C
:10048000FC01E859FF4FC591D491FC01EE58FF4F94
:10049000A591B491611109C09FB7F8948881209506
:1004A00082238883EC912E230BC0623061F49FB7C6
:1004B000F8943881822F809583238883EC912E2BAA
:1004C0002C939FBF06C08FB7F894E8812E2B28830A
:1004D0008FBFDF91CF9108953FB7F89480912502A7
:1004E00090912602A0912702B091280226B5A89BE0
:1004F00005C02F3F19F00196A11DB11D3FBFBA2FB6
:10050000A92F982F8827820F911DA11DB11DBC0115
:10051000CD0142E0660F771F881F991F4A95D1F7DA
:1005200008950895EF92FF921F93CF93DF9397E082
:10053000899F70011124C0E0D0E01CE0FE01EE0DA7
:10054000FF1DE85FFE4F6081812F8C1B0E9400021F
:100550002196C730D10591F7DF91CF911F91FF9080
:10056000EF90089585E00E94D70161E0892B09F0A2
:1005700060E085E00E9400028DE00E94D70161E00A
:10058000892B09F060E08DE00E94000285E00E9466
:10059000D701892B19F080912E0202C080912F0281
:1005A0000C949202CF93DF93009779F0FC010190B5
:1005B0000020E9F73197AF01481B590BBC0186E3D6
:1005C00092E00E94A400EC0102C0C0E0D0E042E052
:1005D00050E060E671E086E392E00E94A4008C0F98
:1005E0009D1FDF91CF9108950E94E4061F920F9204
:1005F0000FB60F9211242F933F934F935F936F93F6
:100600007F938F939F93AF93BF93EF93FF9386E373
:1006100092E00E941A01FF91EF91BF91AF919F91DB
:100620008F917F916F915F914F913F912F910F909B
:100630000FBE0F901F9018951F920F920FB60F923A
:1006400011242F938F939F93EF93FF93E091460292
:10065000F09147028081E0914C02F0914D0282FDC1
:1006600012C0908180914F028F5F8F732091500252
:10067000821751F0E0914F02F0E0EA5CFD4F958F58
:1006800080934F0201C08081FF91EF919F918F91E4
:100690002F910F900FBE0F901F9018951F920F92E1
:1006A0000FB60F9211242F933F938F939F93AF9385
:1006B000BF938091210290912202A0912302B091D8
:1006C00024023091200223E0230F2D3720F40196DD
:1006D000A11DB11D05C026E8230F0296A11DB11D65
:1006E000209320028093210290932202A093230260
:1006F000B09324028091250290912602A0912702B6
:10070000B09128020196A11DB11D809325029093FE
:100710002602A0932702B0932802BF91AF919F9128
:100720008F913F912F910F900FBE0F901F901895B2
:100730001F920F920FB60F9211242F933F934F9356
:100740005F936F937F938F939F93AF93BF93EF9339
:10075000FF93E0910201F09103010995FF91EF9160
:10076000BF91AF919F918F917F916F915F914F91C9
:100770003F912F910F900FBE0F901F9018951F92D1
:100780000F920FB60F9211242F933F934F935F93C5
:100790006F937F938F939F93AF93BF93EF93FF9349
:1007A000E0910001F09101010995FF91EF91BF9156
:1007B000AF919F918F917F916F915F914F913F91F9
:1007C0002F910F900FBE0F901F9018951F920F92B0
:1007D0000FB60F9211242F933F934F935F936F9314
:1007E0007F938F939F93AF93BF93EF93FF93E0918A
:1007F0002902F0912A020995FF91EF91BF91AF91E3
:100800009F918F917F916F915F914F913F912F9128
:100810000F900FBE0F901F901895789484B582604A
:1008200084BD84B5816084BD85B5826085BD85B594
:10083000816085BD80916E00816080936E00109212
:10084000810080918100826080938100809181008D
:10085000816080938100809180008160809380001E
:100860008091B10084608093B1008091B00081607C
:100870008093B00080917A00846080937A008091A8
:100880007A00826080937A0080917A008160809300
:100890007A0080917A00806880937A001092C1007B
:1008A000E0914602F0914702C2E0C083E09142022B
:1008B000F09143021082E0914402F09145028FECE6
:1008C000808310924E02E0914A02F0914B0286E042
:1008D0008083E0914802F0914902808180618083A9
:1008E000E0914802F0914902808188608083E09124
:1008F0004802F0914902808180688083E09148023B
:10090000F091490280818F7D808361E08EE00E94BA
:10091000300261E080E10E94300261E081E10E94EA
:10092000300261E085E00E94300261E08DE00E94CB
:10093000300261E08CE00E94300261E08BE00E94B6
:10094000300261E08AE00E94300261E089E00E94AA
:10095000300261E088E00E94300261E087E00E949E
:10096000300261E086E00E94300262E08FE00E9487
:10097000300262E082E10E94300262E082E00E9486
:10098000300262E083E00E9430028CE890E09093B5
:10099000010180930001809169008C7F82608093C7
:1009A0006900E89A88E990E090930301809302013E
:1009B00080916900837F886080936900E99A80E173
:1009C0008093810010928000C0932D0280E197E215
:1009D00090932C0280932B02909387008093860043
:1009E00082E18093810082EB92E090932A028093CF
:1009F000290281E080936F00109231021092300240
:100A00001092330210923202109235021092340288
:100A100010922F0210922E0260E085E00E940002E8
:100A200061E08DE00E94000294E6892E912CA12CB9
:100A3000B12C8091340290913502892B09F4BEC00B
:100A400083E691E00E94D2028091320290913302BB
:100A5000892BC9F08091300290913102892B99F055
:100A60000E946D06A50194010E947B0661707727A4
:100A7000672B09F0A6C0109231021092300282E773
:100A800091E00E94D202609130027091310281E1C6
:100A90000E94000260913202709133028EE00E9447
:100AA000000261E080E10E940002C6E0D0E00E9406
:100AB0006C022B013C0188EEC82E83E0D82EE12C7D
:100AC000F12C0E946C02DC01CB0184199509A60966
:100AD000B709883E9340A105B10558F021E0C21A3C
:100AE000D108E108F10888EE480E83E0581E611C29
:100AF000711CC114D104E104F10419F72197B9F66E
:100B000060E080E10E94000280EA91E00E94D2024F
:100B10008FE00E94D70131E020E0892B09F030E01E
:100B2000C32ED22E82E10E94D70131E020E0892B32
:100B300009F030E0E32EF22E8FEB91E00E94D2021A
:100B4000CD2809F045C0EF28A9F48FE00E94D70115
:100B500031E020E0892B09F030E0C32ED22E82E173
:100B60000E94D70131E020E0892B09F030E0E32E2C
:100B7000F22EE6CF82EF91E00E94D20280912E0207
:100B80008F5F80932E0210923102109230021092E9
:100B900033021092320210923502109234026091A8
:100BA00030027091310281E10E94000260913202B4
:100BB000709133028EE00E94000278940E94A4019A
:100BC00038CF109233021092320287E891E059CF69
:100BD0008BE092E00E94D20280912F028F5F80937F
:100BE0002F02D1CFE6E3F2E01382128288EE93E087
:100BF000A0E0B0E084839583A683B78382E591E08B
:100C00009183808385EC90E09587848784EC90E0E5
:100C10009787868780EC90E0918B808B81EC90E0C9
:100C2000938B828B82EC90E0958B848B86EC90E0AA
:100C3000978B868B118E128E138E148E08958F9241
:100C40009F92AF92BF92CF92DF92EF92FF92CF939B
:100C5000DF93EC01688179818A819B81611571053F
:100C60008105910521F464E279ED8BE597E02DE1B2
:100C700033EF41E050E00E947B0649015A019B019D
:100C8000AC01A7EAB1E40E949A066B017C01ACEECC
:100C9000B4EFA50194010E94A806DC01CB018C0DE4
:100CA0009D1DAE1DBF1DB7FF03C00197A109B04830
:100CB00088839983AA83BB83BC01CD019F77DF9191
:100CC000CF91FF90EF90DF90CF90BF90AF909F902B
:100CD0008F9008950E941F06089584E091E00E947D
:100CE0001F06089560930401709305018093060127
:100CF000909307010895052E97FB1EF400940E941F
:100D0000920657FD07D00E94AD0607FC03D04EF4B3
:100D10000C94920650954095309521953F4F4F4F3A
:100D20005F4F089590958095709561957F4F8F4F97
:100D30009F4F08950E94CF06A59F900DB49F900DE0
:100D4000A49F800D911D11240895B7FF0C949A065D
:100D50000E949A06821B930B0895A1E21A2EAA1BE9
:100D6000BB1BFD010DC0AA1FBB1FEE1FFF1FA2175B
:100D7000B307E407F50720F0A21BB30BE40BF50B58
:100D8000661F771F881F991F1A9469F760957095E1
:100D9000809590959B01AC01BD01CF010895A29F64
:100DA000B001B39FC001A39F700D811D1124911D3F
:100DB000B29F700D811D1124911D0895EE0FFF1F2C
:100DC0000590F491E02D099481E090E0F8940C9462
:060DD000E906F894FFCFD4
:100DD60091029102010000000101010101010000E0
:100DE60001010000000001010001010001010101F3
:100DF60001000001000101000001010100010100E4
:100E060001010100010101010101010100000000D1
:100E160001010101010101010101000001010000C0
:100E260000003B01A400D30082010401E200F600A9
:100E36000D0A00416C61726D6520617469766164AA
:100E46006F004C656420417A756C20736572C3A18E
:100E560020616365736F004C6564205665726D652D
:100E66006C686F20736572C3A120616365736F0040
:100E760054656D706F207061726120726573706F5A
:100E8600737461206573676F7461646F2121004517
:100E960073706572616E646F2070656C6F20626F2F
:100EA60074C3A36F207175652064697A20717561BA
:100EB6006C2065717569706520706F6E74756F75DD
:100EC6002100457175697065205665726D656C689F
:100ED6006120706F6E74756F75210045717569704C
:100EE6006520617A756C20706F6E74756F75210060
:00000001FF
